:020000040800F2
:10000000A8060020CD010008FF05000893050008A0
:10001000FD0500087F02000805110008000000002F
:100020000000000000000000000000000D090008B2
:10003000110300080000000079060008890A000882
:10004000E7010008E7010008E7010008E7010008F0
:10005000E7010008E701000869030008A50300089C
:10006000E7010008E7010008E7010008E7010008D0
:10007000E7010008E7010008E7010008E7010008C0
:10008000E7010008E7010008E7010008E7010008B0
:10009000E7010008E7010008E7010008E7010008A0
:1000A000DD0A0008E7010008E7010008E701000891
:1000B0003F0B0008CD0B0008710C0008E701000899
:1000C000E7010008E7010008E7010008E701000870
:1000D000E70100082D0E0008750F0008E701000871
:1000E000E7010008E7010008E7010008E701000850
:1000F000E7010008E7010008E7010008E701000840
:10010000E7010008E7010008E7010008E70100082F
:10011000E7010008E7010008E7010008E70100081F
:10012000E7010008E7010008E7010008E70100080F
:1001300000F002F800F03AF80AA090E8000C8244BF
:100140008344AAF10107DA4501D100F02FF8AFF29C
:10015000090EBAE80F0013F0010F18BFFB1A43F0A5
:1001600001031847B00F0000D00F0000103A24BF61
:1001700078C878C1FAD8520724BF30C830C144BF0C
:1001800004680C607047000000230024002500264E
:10019000103A28BF78C1FBD8520728BF30C148BFEA
:1001A0000B6070471FB51FBD10B510BD00F031F8D2
:1001B0001146FFF7F7FF00F0A6FF00F04FF803B479
:1001C000FFF7F2FF03BC00F053F800000948804736
:1001D00009480047FEE7FEE7FEE7FEE7FEE7FEE729
:1001E000FEE7FEE7FEE7FEE704480549054A064B41
:1001F000704700008D0A000831010008A8000020A7
:10020000A8060020A8020020A8020020704770471E
:100210007047754600F028F8AE460500694653461B
:1002200020F00700854618B020B5FFF7DDFFBDE8D8
:1002300020404FF000064FF000074FF000084FF04D
:10024000000B21F00701AC46ACE8C009ACE8C009DE
:10025000ACE8C009ACE8C0098D4670470446AFF36E
:1002600000802046FFF7ABFF0048704748000020A1
:1002700001491820ABBEFEE7260002007047FEE7EA
:10028000FEB50121092000F00FFA0320ADF80800A7
:1002900048208DF80B0002A9114800F025F9002133
:1002A000012000F00DF9002601248DF804600C25D2
:1002B0008DF8055000948DF80640684600F0A6F8C9
:1002C0000121084600F0FCF802208DF8046000903F
:1002D0008DF805508DF80640684600F097F8FEBD91
:1002E000000C01400020074A01461154401CC0B2D6
:1002F0000928FAD30448416001700021034800F046
:10030000CEBC0000340000200400002000040040A7
:100310007047000010B504466FF0040000F0A8FB21
:100320000649E00800EB40020870C2EBC0104FF62F
:10033000FF7202EAC000488010BD000000000020EB
:100340000849498848434FF0E021486100238B6108
:10035000012008610869C20701D0C003FAD50B610A
:100360008B6170470000002010B5012000F03EF8BE
:1003700078B10A20FFF7E4FF0121084800F002F9F4
:1003800038B907481721017011218171072100F048
:1003900087FDBDE81040012000F022B8000C0140AC
:1003A0001700002010B5022000F020F878B10A20D4
:1003B000FFF7C6FF0221084800F0E4F838B9074803
:1003C0002221017033218171072100F069FDBDE810
:1003D0001040022000F004B8000C0140170000207B
:1003E000014908607047000014040140064A0146B4
:1003F00000201268044B0A4014331B680B4202D0E1
:10040000002A00D0012070470004014030B51A4A8C
:100410008379016853B313688B431360111D0B6814
:100420000468A3430B60017911440B6804682343FB
:100430000B60114B083319680468A14319601C1D37
:1004400021680568A94321604179102905D011442C
:100450000A68006802430A6030BD196802681143E7
:100460001960216800680143216030BD00791044A3
:1004700002688A43026030BD0004014004490A68F2
:1004800022F008020A600A6802430A60704700000E
:100490000020024004490A6822F010020A600A683B
:1004A00002430A607047000000200240034A1168BE
:1004B00001F0380101431160704700000020024044
:1004C00010B58A0721F003040649120F21440F23B7
:1004D0008C6893409C438C608B68904003438B6096
:1004E00010BD000000000140F0B5CC78002204F0FF
:1004F0000F03E40601D58C7823430C784FF00F0CE2
:1005000014F0FF0F4FF0010E1BD005680E880EFA95
:1005100002F42640A64210D196000CFA06F725EA0E
:10052000070703FA06F5CE783D43282E02D0482E61
:1005300002D002E0446100E00461521C082AE5D3C5
:1005400005600A88FF2A1CD94468002202F10806C7
:100550000EFA06F50E882E40AE420ED196000CFA29
:1005600006F7BC4303FA06F7CE783C43282E00D1A9
:100570004561CE78482E00D10561521C082AE5D38A
:100580004460F0BD0246002092680A4200D001207B
:100590007047FEE70020044A01461154401CC0B2D7
:1005A0000728FAD3704700001700002038B5012152
:1005B000102000F079F84FF40050ADF8000003254A
:1005C0008DF8025010248DF8034069460948FFF762
:1005D0008BFF0121082000F067F84FF4F070ADF8B0
:1005E00000008DF802508DF8034069460248FFF77D
:1005F0007BFF38BD00100140000C0140FEE7704752
:1006000030B50F23C27801780125F2B1144A12687F
:1006100001F1E02102F4E062C2F5E062120AC2F1E7
:100620000404D3404278A24084781C401443220141
:1006300081F80024007800F01F018D4040098000FF
:1006400000F1E020C0F8005130BD01F01F008540EE
:100650004809800000F1E020C0F8805130BD000062
:100660000CED00E0024908430249086070470000B1
:100670000000FA050CED00E070470000034A5168E5
:1006800021F44041014351607047000000100240D6
:10069000044A0029D16901D0014300E08143D161BE
:1006A0007047000000100240044A0029916901D0FF
:1006B000014300E081439161704700000010024057
:1006C00010B500F039F84FF48034204600F0C0F83F
:1006D00000F006F90128FBD10220FFF7E7FE102009
:1006E000FFF7D8FE4FF4E011204600F0E5F80120B6
:1006F00000F0DCF8392000F089F80028FAD000205A
:1007000000F09CF8002000F0C7F84FF4806000F083
:10071000B9F84FF40040FFF7B1FF0220FFF7C6FE23
:100720000020FFF7ABFE1020FFF7B4FEBDE810403D
:10073000022000F0CBB800000C48016841F0010134
:10074000016041680A4A114041600168094A11404C
:100750000160016821F480210160416821F4FE01FB
:1007600041604FF41F01816070470000001002409B
:100770000000FFF8FFFFF6FE30B5204A5168204B1D
:1007800011F00C0103D0042901D0082901D0036025
:1007900012E05168536801F470114FF0020413F431
:1007A000803F04EB914102D053689B0301D5154B68
:1007B00000E0134B5943016051680F2303EA111104
:1007C000114B5C5C0168E14041605468072505EA13
:1007D00014241C5D21FA04F48460546805EAD424CE
:1007E0001B5DD940C1605268032303EA9232064B75
:1007F0001B1F9A5CB1FBF2F1016130BD0010024099
:1008000000127A0000093D0022000020034600206B
:100810005909094A01290AD002290AD0516A03F06C
:100820001F02012393400B4200D001207047116842
:10083000F5E7116AF3E7000000100240034A51682F
:1008400021F0F001014351607047000000100240A8
:100850000B490A6822F480320A600A6822F4802276
:100860000A60B0F5803F07D0B0F5802F03D108684B
:1008700040F4A02008607047086840F48030F9E731
:1008800000100240034A516821F4E06101435160C5
:100890007047000000100240034A516821F4605183
:1008A00041EAC000506070470010024001490866EC
:1008B0007047000000004242034B5A68084322F48C
:1008C0007C1210435860704700100240034A516880
:1008D00021F0030101435160704700000010024005
:1008E00018B500204FF4A06400903120FFF78EFF70
:1008F0000099491C0091A14201D00028F5D0312077
:10090000FFF784FF002800D0012018BD70470000C9
:100910000CB50022264800920192016841F4803112
:1009200001604FF4A063016801F400310191009966
:10093000491C0091019911B900999942F3D10168BC
:10094000890333D5012101911A490A6842F0100246
:100950000A600A6822F003020A600A6842F0020292
:100960000A604168416041684160416841F48061CA
:100970004160416821F47C114160416841F4E81113
:100980004160016841F08071016001688901FCD516
:10099000416821F003014160416841F0020141607A
:1009A0004168C1F381010229FAD10CBD01920CBD4D
:1009B00000100240002002400248C16881F400514A
:1009C000C1607047001001400121014800F067B983
:1009D0000008004010B500F059F8FFF771FE4820FC
:1009E000FFF798FC00F00CF8FFF74AFC00F0C4F9A0
:1009F00000F070FA00F073F8BDE8104000F006B99E
:100A000038B54FF4A060FFF72DFE25208DF80000CB
:100A100001248DF801408DF802408DF803406846AE
:100A2000FFF7EEFD26208DF800008DF8014002252D
:100A30008DF802508DF803406846FFF7E1FD06206F
:100A40008DF800008DF801508DF802408DF80340BC
:100A50006846FFF7D5FD07208DF800008DF801509E
:100A60008DF802508DF803406846FFF7C9FD38BD88
:100A70004FF0E0210428086903D020F00400086149
:100A8000704740F00400FAE7704700000F4810B5C7
:100A9000016841F00101016041680D4A1140416067
:100AA00001680C4A11400160016821F48021016055
:100AB000416821F4FE0141604FF41F018160FFF79E
:100AC00027FF05494FF00060086010BD001002408C
:100AD0000000FFF8FFFFF6FE08ED00E070471FB5CD
:100AE00001210846FFF7D4FD4FF080440021204645
:100AF00000F0D5F841F63F71ADF8001042F2273012
:100B0000ADF804000021ADF80610ADF802106946FA
:100B1000204600F0E3F801221146204600F0D5F807
:100B20001C208DF80C0003208DF80D008DF80E00B0
:100B300001208DF80F0003A8FFF762FD1FBD10B55F
:100B400001218C07204600F0B4F8002807D00121CD
:100B5000204600F0A1F8BDE81040FFF72DBF10BD02
:100B60001FB501210220FFF793FD174C00212046FD
:100B700000F095F840F65F10ADF8000040F6B73091
:100B8000ADF804000021ADF80610ADF8021069467A
:100B9000204600F0A3F801221146204600F095F807
:100BA0001D208DF80C0003218DF80D108DF80E100E
:100BB00001208DF80F0003A8FFF722FD0021204639
:100BC00000F06DF81FBD00000004004010B50D4C92
:100BD0000121204600F06DF8002811D001212046A7
:100BE00000F05AF80848017841B14068002807D061
:100BF000092805D0BDE81040FFF774BB0121017042
:100C000010BD000000040040040000201FB50121B9
:100C10000420FFF73DFD154C0021204600F03FF871
:100C200043F67F61ADF8001043F2BB40ADF804001D
:100C30000021ADF80610ADF802106946204600F01C
:100C40004DF801221146204600F03FF81E208DF895
:100C50000C0003208DF80D008DF80E0001208DF89A
:100C60000F0003A8FFF7CCFC1FBD000000080040E8
:100C700010B5084C0121204600F01BF8002807D0D1
:100C80000121204600F008F8BDE81040FFF794BEAF
:100C900010BD000000080040C943018270470029D0
:100CA000018802D041F0010101E021F00101018041
:100CB000704702460020138A92890B4202EA010221
:100CC00002D0002A00D001207047002A828901D07A
:100CD0000A4300E08A4382817047000030B50288F1
:100CE0001B4C1C4DA0420DD0A8420BD0B0F1804F40
:100CF00008D0194B984205D0184B984202D0184B97
:100D0000984203D122F070034A881A43154B984247
:100D100006D0154B984203D022F44073CA881A4378
:100D200002808A8882850A880285A0420AD0A84269
:100D300008D00E4A904205D00D4A904202D00D4A8A
:100D4000904201D1097A01860121818230BD0000E3
:100D5000002C014000340140000400400008004025
:100D6000000C004000100040001400400040014012
:100D7000004401400048014010B586B00121052023
:100D8000FFF792FC01218803FFF78EFC4FF40070FF
:100D9000ADF8100003208DF8120018201B4C8DF8C0
:100DA000130004A92046FFF79FFB2115ADF8101092
:100DB00004218DF8131004A92046FFF795FB4FF48A
:100DC000614000900020ADF80400ADF80600ADF8D9
:100DD0000800ADF80C000C200D4CADF80A00694677
:100DE000204600F031F9012240F22551204600F062
:100DF00013F92021204600F0FBF80121204600F0E5
:100E0000FAF8FFF7ADFE06B010BD00000008014083
:100E10000038014010B50921034800F0CFF8BDE8C3
:100E20001040FFF75FBA0000340000202DE9F041C8
:100E3000174F2021384600F0E8F8012825D120215D
:100E4000384600F0D5F8134E3088134CC0074FF0E9
:100E5000000504D101213046FFF721FF25703846F7
:100E600000F048F90D4A61685054491C6160092935
:100E70000BD165602570FFF78DFB00213046FFF731
:100E80000EFFBDE8F041FFF7C5BFBDE8F0810000EF
:100E9000003801400004004004000020340000201D
:100EA0002DE9F0410D4606460024094F0BE0802154
:100EB000384600F0AAF80028F9D0315D384600F035
:100EC0001DF9641CA4B2AC42F1D3BDE8F08100006E
:100ED0000038014030B585B001210520FFF7E4FB63
:100EE00001214804FFF7D4FB0424ADF8104003208F
:100EF0008DF8120018201A4D8DF8130004A9284609
:100F0000FFF7F2FA0821ADF810108DF8134004A98C
:100F10002846FFF7E9FA4FF4614000900020ADF851
:100F20000400ADF80600ADF80800ADF80C000C2088
:100F30000C4CADF80A006946204600F085F8012205
:100F400040F22551204600F067F82021204600F0AD
:100F50004FF80121204600F04EF805B030BD0000EA
:100F6000000801400044004007210148FFF798BFF6
:100F70001000002010B50F4C2021204600F045F84D
:100F8000012816D12021204600F032F8204600F03A
:100F9000B1F8094BA3F10C0291685854491C9160B7
:100FA000072906D1002090605070BDE81040FFF77F
:100FB000DBBF10BD00440040100000202DE9F041CF
:100FC0000D4606460024094F0BE08021384600F00C
:100FD0001CF80028F9D0315D384600F08FF8641C09
:100FE000A4B2AC42F1D3BDE8F0810000004400405F
:100FF000C943018070470029818902D041F4005122
:1010000001E021F4005181817047024600201288DE
:101010000A4200D00120704710B5C1F3421301F01D
:101020001F040121A140012B07D0022B07D014304F
:10103000002A026805D00A4304E00C30F8E71030BB
:10104000F6E78A43026010BD30B50446008A85B0D9
:101050000D464CF6FF710840E98801432182A089C2
:101060004EF6F3110840A9882A8911436A89024380
:101070001143A181A08A4FF6FF410840A98901438D
:10108000A1826846FFF778FB1948844201D1039892
:1010900000E00298A189090400EBC00101EB0010F7
:1010A000296801D5490000E08900B0FBF1F0642215
:1010B000B0FBF2F109010B096FF018056B4300EB6F
:1010C0008300A3891D044FF0320306D503EBC00053
:1010D000B0FBF2F000F0070005E003EB0010B0FBFE
:1010E000F2F000F00F000843208105B030BD000091
:1010F000003801408088C0F308007047C1F3080140
:1011000081807047FEE7FFF765FCFFF74FFAFFF7B6
:101110005BFCFEE7341100080000002034000000F2
:101120006C010008681100083400002074060000FB
:10113000880100080000000000000000000000001E
:10114000000000000000000000000000000000009F
:10115000000002040608000000000102030401026E
:08116000030406070809000062
:0400000508000131BD
:00000001FF
