:020000040800F2
:10000000B0060020CD010008DB0600086F060008DE
:10001000D9060008B1020008A11400080000000081
:10002000000000000000000000000000AD0A000811
:100030004503000800000000C1070008950C0008F7
:10004000E9010008E9010008E9010008E9010008E8
:10005000E9010008E90100089D03000829040008DF
:10006000E9010008E9010008E9010008E9010008C8
:10007000E9010008E9010008E9010008E9010008B8
:10008000E9010008E9010008E9010008E9010008A8
:10009000E9010008E9010008E9010008E901000898
:1000A000E9010008590D0008E9010008E90100080C
:1000B000E10D0008710E0008150F0008E9010008A5
:1000C000E9010008E9010008E9010008E901000868
:1000D000E9010008B111000811130008E901000846
:1000E000E9010008E9010008E9010008E901000848
:1000F000E9010008E9010008E9010008E901000838
:10010000E9010008E9010008E9010008E901000827
:10011000E9010008E9010008E9010008E901000817
:10012000E9010008E9010008E9010008E901000807
:1001300000F002F800F03AF80AA090E8000C8244BF
:100140008344AAF10107DA4501D100F02FF8AFF29C
:10015000090EBAE80F0013F0010F18BFFB1A43F0A5
:10016000010318477C1300009C130000103A24BFC1
:1001700078C878C1FAD8520724BF30C830C144BF0C
:1001800004680C607047000000230024002500264E
:10019000103A28BF78C1FBD8520728BF30C148BFEA
:1001A0000B6070471FB51FBD10B510BD00F033F8D0
:1001B0001146FFF7F7FF01F075F900F051F803B4AD
:1001C000FFF7F2FF03BC00F055F800000A48804733
:1001D0000A480047FEE7FEE7FEE7FEE7FEE7FEE728
:1001E000FEE7FEE7FEE7FEE7FEE7000004480549FC
:1001F000054A064B70470000990C000831010008C1
:10020000B0000020B0060020B0020020B0020020A4
:10021000704770477047754600F028F8AE460500F5
:100220006946534620F00700854618B020B5FFF711
:10023000DDFFBDE820404FF000064FF000074FF013
:1002400000084FF0000B21F00701AC46ACE8C009F4
:10025000ACE8C009ACE8C009ACE8C0098D467047FD
:100260000446AFF300802046FFF7A9FF004870471F
:100270004C00002001491820ABBEFEE7260002001A
:100280007047000010B5094C2021204600F0EBF922
:100290004021204600F0E7F98021204600F0E3F9F4
:1002A000A1152046BDE8104000F0DDB9000C01406A
:1002B000FEE70000FEB50121092000F0C5FA032089
:1002C000ADF8080048208DF80B0002A9114800F095
:1002D00075F90021012000F05DF9002601248DF858
:1002E00004600C258DF8055000948DF80640684692
:1002F00000F0F6F80121084600F04CF902208DF8D4
:10030000046000908DF805508DF80640684600F0B6
:10031000E7F8FEBD000C01400020074A01461154D9
:10032000401CC0B20928FAD3044841600170002182
:10033000034800F009BE000038000020080000203B
:10034000000400407047000010B504466FF0040040
:1003500000F094FC0649E00800EB40020870C2EB94
:10036000C0104FF6FF7202EAC000488010BD0000C6
:10037000000000200849498848434FF0E0214861C7
:1003800000238B61012008610869C20701D0C00306
:10039000FAD50B618B617047000000202DE9F04118
:1003A000012000F08DF898B30A20FFF7E3FF012148
:1003B0001A4800F051F958BB1948012676250078F3
:1003C000184C01280CD00227022804D003280CD096
:1003D00004281DD10FE000F04BF92570677008E08C
:1003E00000F046F92570667009E000F041F92570CB
:1003F0006670A77004E000F03BF925706770A67086
:100400000721084800F00EFFFFF73CFF00F0A4FBB7
:10041000BDE8F041012000F04DB80000000C0140A3
:10042000050000201B0000202DE9F041022000F013
:1004300047F898B30A20FFF79DFF02211A4800F001
:100440000BF958BB19480226012700787625184C6D
:1004500001280BD0022804D003280CD004281DD179
:100460000FE000F005F92570677008E000F000F972
:100470002570667009E000F0FBF825706670A670C4
:1004800004E000F0F5F825706770A77007210848B0
:1004900000F0C8FEFFF7F6FE00F05EFBBDE8F0419D
:1004A000022000F007B80000000C01400500002009
:1004B0001B0000200149086070470000140401403F
:1004C000064A014600201268044B0A4014331B6898
:1004D0000B4202D0002A00D00120704700040140E6
:1004E00030B51A4A8379016853B313688B4313609C
:1004F000111D0B680468A3430B60017911440B685C
:10050000046823430B60114B083319680468A14346
:1005100019601C1D21680568A943216041791029D3
:1005200005D011440A68006802430A6030BD1968AA
:10053000026811431960216800680143216030BDE1
:100540000079104402688A43026030BD0004014013
:1005500004490A6822F008020A600A6802430A6035
:10056000704700000020024004490A6822F010028F
:100570000A600A6802430A607047000000200240D7
:10058000034A116801F0380101431160704700000F
:100590000020024010B58A0721F003040649120F1B
:1005A00021440F238C6893409C438C608B6890405F
:1005B00003438B6010BD000000000140F0B5CC7813
:1005C000002204F00F03E40601D58C7823430C7855
:1005D0004FF00F0C14F0FF0F4FF0010E1BD0056809
:1005E0000E880EFA02F42640A64210D196000CFAAC
:1005F00006F725EA070703FA06F5CE783D43282ECD
:1006000002D0482E02D002E0446100E00461521C96
:10061000082AE5D305600A88FF2A1CD9446800220D
:1006200002F108060EFA06F50E882E40AE420ED1F3
:1006300096000CFA06F7BC4303FA06F7CE783C4363
:10064000282E00D14561CE78482E00D10561521C7C
:10065000082AE5D34460F0BD0246002092680A42B1
:1006600000D0012070474161704701617047FEE78B
:100670000020044A01461154401CC0B20728FAD396
:10068000704700001B00002038B50121102000F049
:10069000DBF84FF40050ADF8000003258DF8025050
:1006A00010248DF8034069460948FFF787FF0121B0
:1006B000082000F0C9F84FF4F070ADF800008DF894
:1006C00002508DF8034069460248FFF777FF38BDB6
:1006D00000100140000C0140FEE7704730B50F23C9
:1006E000C27801780125F2B1144A126801F1E021C3
:1006F00002F4E062C2F5E062120AC2F10404D340DF
:100700004278A24084781C401443220181F80024DE
:10071000007800F01F018D404009800000F1E020CA
:10072000C0F8005130BD01F01F008540480980002D
:1007300000F1E020C0F8805130BD00000CED00E079
:100740000249084302490860704700000000FA05AA
:100750000CED00E010B500F01FFA0121BDE81040DB
:10076000880700F0F1BB000010B5094C202120469D
:10077000FFF77BFF40212046FFF775FF80212046D1
:10078000FFF771FFA1152046BDE81040FFF76BBFD2
:10079000000C014010B5094C20212046FFF763FFF3
:1007A00040212046FFF761FF80212046FFF75BFFD5
:1007B000A1152046BDE81040FFF755BF000C0140D1
:1007C0007047000010B5094C20212046FFF74BFF71
:1007D00040212046FFF747FF80212046FFF743FFD7
:1007E000A1152046BDE81040FFF73FBF000C0140B7
:1007F00010B5094C20212046FFF735FF4021204647
:10080000FFF731FF80212046FFF72FFFA11520467B
:10081000BDE81040FFF727BF000C0140034A5168B4
:1008200021F4404101435160704700000010024034
:10083000044A0029D16901D0014300E08143D1611C
:100840007047000000100240044A0029916901D05D
:10085000014300E0814391617047000000100240B5
:1008600010B500F039F84FF48034204600F0C0F89D
:1008700000F006F90128FBD10220FFF781FE1020CD
:10088000FFF772FE4FF4E011204600F0E5F801207A
:1008900000F0DCF8392000F089F80028FAD00020B8
:1008A00000F09CF8002000F0C7F84FF4806000F0E2
:1008B000B9F84FF40040FFF7B1FF0220FFF760FEE8
:1008C0000020FFF745FE1020FFF74EFEBDE8104068
:1008D000022000F0CBB800000C48016841F0010193
:1008E000016041680A4A114041600168094A1140AB
:1008F0000160016821F480210160416821F4FE015A
:1009000041604FF41F0181607047000000100240F9
:100910000000FFF8FFFFF6FE30B5204A5168204B7B
:1009200011F00C0103D0042901D0082901D0036083
:1009300012E05168536801F470114FF0020413F48F
:10094000803F04EB914102D053689B0301D5154BC6
:1009500000E0134B5943016051680F2303EA111162
:10096000114B5C5C0168E14041605468072505EA71
:1009700014241C5D21FA04F48460546805EAD4242C
:100980001B5DD940C1605268032303EA9232064BD3
:100990001B1F9A5CB1FBF2F1016130BD00100240F7
:1009A00000127A0000093D002600002003460020C6
:1009B0005909094A01290AD002290AD0516A03F0CB
:1009C0001F02012393400B4200D0012070471168A1
:1009D000F5E7116AF3E7000000100240034A51688E
:1009E00021F0F00101435160704700000010024007
:1009F0000B490A6822F480320A600A6822F48022D5
:100A00000A60B0F5803F07D0B0F5802F03D10868A9
:100A100040F4A02008607047086840F48030F9E78F
:100A200000100240034A516821F4E0610143516023
:100A30007047000000100240034A516821F46051E1
:100A400041EAC0005060704700100240014908664A
:100A50007047000000004242034B5A68084322F4EA
:100A60007C1210435860704700100240034A5168DE
:100A700021F0030101435160704700000010024063
:100A800018B500204FF4A06400903120FFF78EFFCE
:100A90000099491C0091A14201D00028F5D03120D5
:100AA000FFF784FF002800D0012018BD7047000028
:100AB0000CB50022264800920192016841F4803171
:100AC00001604FF4A063016801F4003101910099C5
:100AD000491C0091019911B900999942F3D101681B
:100AE000890333D5012101911A490A6842F01002A5
:100AF0000A600A6822F003020A600A6842F00202F1
:100B00000A604168416041684160416841F4806128
:100B10004160416821F47C114160416841F4E81171
:100B20004160016841F08071016001688901FCD574
:100B3000416821F003014160416841F002014160D8
:100B40004168C1F381010229FAD10CBD01920CBDAB
:100B5000001002400020024010B500F01DF8BDE872
:100B600010400121014800F0EFB90000002C0140C5
:100B700010B500F011F8BDE810404FF400510148E5
:100B8000FFF773BD001001400248C16881F40051B5
:100B9000C16070470010014010B50021064800F008
:100BA000D3F900214FF0804000F0CEF9BDE81040AD
:100BB0000021024800F0C8B9002C014000080040A4
:100BC00010B5FFF7E9FFBDE810400121014800F032
:100BD000BBB900000008004010B500F05DF8FFF759
:100BE0003FFE4820FFF7B0FBFFF74EFD00F00EF888
:100BF000FFF760FB00F014FA00F02EFB00F074F831
:100C000000F0BEF8BDE8104000F052B938B54FF41E
:100C1000A060FFF795FD25208DF8000001248DF8D8
:100C200001408DF802408DF803406846FFF756FDFD
:100C300026208DF800008DF801408DF802408DF8D7
:100C400003406846FFF74AFD06208DF800000225A4
:100C50008DF801508DF802408DF803406846FFF78B
:100C60003DFD07208DF800008DF801508DF80250F1
:100C70008DF803406846FFF731FD38BD4FF0E021A5
:100C80000428086903D020F004000861704740F090
:100C90000400FAE7704700000F4810B5016841F002
:100CA0000101016041680D4A1140416001680C4A30
:100CB00011400160016821F480210160416821F444
:100CC000FE0141604FF41F018160FFF7F1FE05490D
:100CD0004FF00060086010BD001002400000FFF8F7
:100CE000FFFFF6FE08ED00E01FB50121C802FFF787
:100CF000ABFD184C0021204600F026F941F2BF2040
:100D0000ADF8000040F6B7300021ADF80400ADF8B2
:100D10000610ADF802108DF808106946204600F064
:100D200031F90121204600F009F90122114620463F
:100D300000F020F919208DF80C0003208DF80D002B
:100D40008DF80E0001208DF80F0003A8FFF7C6FCF8
:100D50001FBD0000002C014010B5084C01212046A9
:100D600000F0FCF8002807D00121204600F0E9F847
:100D7000BDE81040FFF708BF10BD0000002C014087
:100D80001FB501210846FFF753FD4FF080440021B5
:100D9000204600F0D9F841F63F71ADF8001042F25C
:100DA0002730ADF804000021ADF80610ADF80210B0
:100DB0006946204600F0E6F801221146204600F080
:100DC000D9F81C208DF80C0003208DF80D008DF84B
:100DD0000E0001208DF80F0003A8FFF77FFC1FBD58
:100DE00010B501218C07204600F0B8F8002807D084
:100DF0000121204600F0A5F8BDE81040FFF7C4BE71
:100E000010BD00001FB501210220FFF711FD174C96
:100E10000021204600F098F840F65F10ADF8000081
:100E200040F6B730ADF804000021ADF80610ADF87B
:100E300002106946204600F0A5F80122114620461E
:100E400000F098F81D208DF80C0003218DF80D108E
:100E50008DF80E1001208DF80F0003A8FFF73EFC5F
:100E60000021204600F070F81FBD00000004004083
:100E700010B50D4C0121204600F070F8002811D06B
:100E80000121204600F05DF80848017841B1406832
:100E9000002807D0092805D0BDE81040FFF73CBA6C
:100EA0000121017010BD0000000400400800002076
:100EB0001FB501210420FFF7BBFC154C0021204683
:100EC00000F042F843F67F61ADF8001043F2BB40FA
:100ED000ADF804000021ADF80610ADF80210694627
:100EE000204600F04FF801221146204600F042F85B
:100EF0001E208DF80C0003208DF80D008DF80E00DB
:100F000001208DF80F0003A8FFF7E8FB1FBD0000CC
:100F10000008004010B5084C0121204600F01EF8E2
:100F2000002807D00121204600F00BF8BDE8104052
:100F3000FFF72ABE10BD000000080040C94301822F
:100F40007047C943018270470029018802D041F0EF
:100F5000010101E021F001010180704702460020FB
:100F6000138A92890B4202EA010202D0002A00D0C1
:100F700001207047002A828901D00A4300E08A4399
:100F80008281704730B502881B4C1C4DA0420DD0A9
:100F9000A8420BD0B0F1804F08D0194B984205D031
:100FA000184B984202D0184B984203D122F070039C
:100FB0004A881A43154B984206D0154B984203D0E5
:100FC00022F44073CA881A4302808A8882850A887C
:100FD0000285A0420AD0A84208D00E4A904205D00D
:100FE0000D4A904202D00D4A904201D1097A018601
:100FF0000121818230BD0000002C014000340140FD
:101000000004004000080040000C004000100040B8
:1010100000140040004001400044014000480140ED
:1010200010B586B001210520FFF70EFC01218803D1
:10103000FFF70AFC4FF40070ADF8100003208DF8A4
:10104000120018201B4C8DF8130004A92046FFF74E
:10105000B5FA2115ADF8101004218DF8131004A96C
:101060002046FFF7ABFA4FF4614000900020ADF846
:101070000400ADF80600ADF80800ADF80C000C2037
:101080000D4CADF80A006946204600F0ABF901228C
:1010900040F22551204600F08DF92021204600F035
:1010A00075F90121204600F074F9FFF7ABFE06B098
:1010B00010BD000000080140003801402DE9F0415A
:1010C0003748017821B30122022303260427407800
:1010D0000024344D702908D09A2935D0FF292FD00B
:1010E00009212F4800F038F92AE02F49012810D0B3
:1010F000022812D0032812D0042814D0052816D0B4
:10110000062814D00C70FFF747FDA878012812D0EC
:1011100016E00A70FFF720FDF7E70B7008E00E708D
:10112000FFF718FBF1E70F70FFF74AFDEDE70870D6
:10113000FFF71EFDE9E70921194800F00DF9AC7031
:10114000BDE8F041FFF7E8B81549DFF860C00228B4
:10115000897802D003280FD012E0012902D0022999
:1011600005D00DE08CF80030FFF7FEFACDE78CF8E3
:101170000020FFF70FFBC8E7012906D0022909D09C
:101180008CF80040FFF77EF8BFE78CF80060FFF7AF
:101190002FFBBAE78CF80070FFF714FBB5E70000EF
:1011A0003800002008000020040000200500002076
:1011B0002DE9F041174F2021384600F0F4F80128BE
:1011C00025D12021384600F0E1F8134E3088134C29
:1011D000C0074FF0000504D101213046FFF7B4FEEF
:1011E0002570384600F054F90D4A61685054491C86
:1011F000616009290BD165602570FFF739FA00217C
:101200003046FFF7A1FEBDE8F041FFF757BFBDE84C
:10121000F081000000380140000400400800002078
:10122000380000202DE9F0410D4606460024094F04
:101230000BE08021384600F0B6F80028F9D0315D87
:10124000384600F029F9641CA4B2AC42F1D3BDE8E1
:10125000F08100000038014030B585B00121052043
:10126000FFF7F2FA01214804FFF7E2FA0424ADF88F
:10127000104003208DF8120018201A4D8DF813002D
:1012800004A92846FFF79AF90821ADF810108DF847
:10129000134004A92846FFF791F94FF461400090EC
:1012A0000020ADF80400ADF80600ADF80800ADF878
:1012B0000C000C200C4CADF80A006946204600F0EA
:1012C00091F8012240F22551204600F073F82021C8
:1012D000204600F05BF80121204600F05AF805B0E6
:1012E00030BD0000000801400044004010B5072157
:1012F0000648FFF797FF05480449012200780C399A
:10130000702801D09A2800D18A7010BD14000020E6
:1013100010B50F4C2021204600F045F8012816D1C9
:101320002021204600F032F8204600F0B1F8094BA9
:10133000A3F10C0291685854491C9160072906D109
:10134000002090605070BDE81040FFF7CFBF10BD87
:1013500000440040140000202DE9F0410D460646EF
:101360000024094F0BE08021384600F01CF80028CB
:10137000F9D0315D384600F08FF8641CA4B2AC425D
:10138000F1D3BDE8F081000000440040C943018072
:1013900070470029818902D041F4005101E021F415
:1013A0000051818170470246002012880A4200D015
:1013B0000120704710B5C1F3421301F01F04012151
:1013C000A140012B07D0022B07D01430002A02685D
:1013D00005D00A4304E00C30F8E71030F6E78A4302
:1013E000026010BD30B50446008A85B00D464CF64B
:1013F000FF710840E98801432182A0894EF6F3116C
:101400000840A9882A8911436A8902431143A181AE
:10141000A08A4FF6FF410840A9890143A18268468E
:10142000FFF77AFA1948844201D1039800E0029844
:10143000A189090400EBC00101EB0010296801D566
:10144000490000E08900B0FBF1F06422B0FBF2F14A
:1014500009010B096FF018056B4300EB8300A389AA
:101460001D044FF0320306D503EBC000B0FBF2F0D1
:1014700000F0070005E003EB0010B0FBF2F000F015
:101480000F000843208105B030BD00000038014046
:101490008088C0F308007047C1F30801818070475D
:1014A000FEE70000FFF798FB70260C4C4FF44875E0
:1014B0009A272846FEF75EFFFFF7DAF82670072125
:1014C0000648FFF7AFFE2846FEF754FFFFF7D0F8B7
:1014D000277007210148FFF7A5FEEAE71B0000205F
:1014E0000015000800000020380000006C01000812
:1014F0003815000838000020780600008801000830
:1015000000000000000000000000000000000000DB
:1015100000000000000000000000000000000000CB
:10152000000002040608000000000102030401029A
:0815300003040607080900008E
:0400000508000131BD
:00000001FF
