:020000040800F2
:10000000B0060020CD010008A10800082D08000856
:100010009D080008B1020008CB180008000000008D
:10002000000000000000000000000000250D000896
:100030005903000800000000910900085F0F000844
:10004000E9010008E9010008E9010008E9010008E8
:10005000E9010008E9010008D5030008BD04000813
:10006000E9010008E9010008E9010008E9010008C8
:10007000E9010008E9010008E9010008E9010008B8
:10008000E9010008E9010008E9010008E9010008A8
:10009000E9010008E9010008E9010008E901000898
:1000A000E901000865100008E9010008E9010008FD
:1000B000E51000086911000825120008E901000890
:1000C000E9010008E9010008E9010008E901000868
:1000D000E90100084D150008C5160008E9010008EF
:1000E000E9010008E9010008E9010008E901000848
:1000F000E9010008E9010008E9010008E901000838
:10010000E9010008E9010008E9010008E901000827
:10011000E9010008E9010008E9010008E901000817
:10012000E9010008E9010008E9010008E901000807
:1001300000F002F800F03AF80AA090E8000C8244BF
:100140008344AAF10107DA4501D100F02FF8AFF29C
:10015000090EBAE80F0013F0010F18BFFB1A43F0A5
:1001600001031847E817000008180000103A24BFE0
:1001700078C878C1FAD8520724BF30C830C144BF0C
:1001800004680C607047000000230024002500264E
:10019000103A28BF78C1FBD8520728BF30C148BFEA
:1001A0000B6070471FB51FBD10B510BD00F033F8D0
:1001B0001146FFF7F7FF01F08BFB00F051F803B495
:1001C000FFF7F2FF03BC00F055F800000A48804733
:1001D0000A480047FEE7FEE7FEE7FEE7FEE7FEE728
:1001E000FEE7FEE7FEE7FEE7FEE7000004480549FC
:1001F000054A064B70470000610F000831010008F6
:10020000B0000020B0060020B0020020B0020020A4
:10021000704770477047754600F028F8AE460500F5
:100220006946534620F00700854618B020B5FFF711
:10023000DDFFBDE820404FF000064FF000074FF013
:1002400000084FF0000B21F00701AC46ACE8C009F4
:10025000ACE8C009ACE8C009ACE8C0098D467047FD
:100260000446AFF300802046FFF7A9FF004870471F
:100270004C00002001491820ABBEFEE7260002001A
:100280007047000010B52021084800F0CBFA40214B
:10029000064800F0C7FA8021044800F0C3FA4FF482
:1002A0008071024800F0BEFA10BD0000000C014051
:1002B00000BFFEE70EB50121092000F0B3FB0320CB
:1002C000ADF8080048208DF80B0002A9134800F093
:1002D00015FA0021012000F0F1F901200090002022
:1002E0008DF804000C208DF8050001208DF8060023
:1002F000684600F071F90121084600F0DFF902209C
:10030000009000208DF804000C208DF805000120DD
:100310008DF80600684600F05FF90EBD000C014044
:1003200010B5002404E0002007490855601CC4B241
:10033000092CF8DB002005490860054908700021F8
:10034000044800F085FF10BD380000201000002098
:100350001F000020000400407047000010B5044654
:100360006FF0040000F0E7FDE11704EB5171C1F3F9
:10037000C701074A11701046007800EB4001C1EB3D
:10038000C0104FF6FF7101EAC0000249088010BD9D
:10039000000000200200002001460D4A12884A4356
:1003A0004FF0E0235A6100229A6101221A6100BFD6
:1003B0004FF0E022106900F001021AB100F480321F
:1003C000002AF5D000224FF0E0231A619A617047AD
:1003D0000200002010B5012000F0EAF8002863D0E8
:1003E0001E20FFF7D9FF0121314800F012FA002842
:1003F0005AD13048007801281AD0022804D00328A6
:1004000029D004284ED139E000F012FA76202A498A
:10041000087001204870022088700721264801F0EA
:10042000D7F8FFF72FFF00F0F3FC00F0C9FD3AE02A
:1004300000F0FEF97620204908700220487088708C
:1004400007211D4801F0C4F8FFF71CFF00F0E0FC95
:1004500000F0B6FD27E000F0EBF9762016490870B1
:100460000120487088700721134801F0B1F8FFF7A8
:1004700009FF00F0CDFC00F0A3FD14E000F0D8F976
:1004800076200D49087002204870012088700721ED
:10049000094801F09DF8FFF7F5FE00F0B9FC00F007
:1004A0008FFD00E000BF00BF012000F07BF810BD11
:1004B000000C0140050000201800002010B50220AB
:1004C00000F076F8002863D01E20FFF765FF0221B8
:1004D000314800F09EF900285AD1304800780128B0
:1004E0001AD0022804D0032829D004284ED139E09C
:1004F00000F09EF976202A490870022048700120F9
:1005000088700721264801F063F8FFF7BBFE00F072
:100510007FFC00F055FD3AE000F08AF97620204992
:10052000087001204870887007211D4801F050F8BC
:10053000FFF7A8FE00F06CFC00F042FD27E000F0A1
:1005400077F97620164908700220487088700721D4
:10055000134801F03DF8FFF795FE00F059FC00F05C
:100560002FFD14E000F064F976200D490870012099
:100570004870022088700721094801F029F8FFF728
:1005800081FE00F045FC00F01BFD00E000BF00BF55
:10059000022000F007F810BD000C0140050000200B
:1005A0001800002001490860704700001404014051
:1005B000014600200022074B1B6803EA0102054B9D
:1005C00014331B680B4013B10AB1012000E0002076
:1005D0007047000000040140002123498279002A6D
:1005E0003AD00A46126803689A430B461A600A1DFD
:1005F000126803689A430B1D1A60027911440A6855
:1006000003681A430A60184A0832126803689A435A
:10061000154B08331A601A1D126803689A43124B6F
:100620000C331A604279102A0ED11A1F126803681F
:100630001A430D4B08331A601A1D126803681A43D7
:10064000094B0C331A600DE00749427911440A68DE
:1006500003681A430A6005E0027911440A680368D6
:100660009A430A6070470000000401400549096888
:1006700021F00801034A1160114609680143116025
:1006800070470000002002400549096821F0100170
:10069000034A116011460968014311607047000068
:1006A0000020024001460020034A106800F0380094
:1006B00008431060704700000020024030B500225F
:1006C0008B071C0F0F2303FA04F20B4B8C1053F80B
:1006D00024309343084C8D1044F8253023468C1069
:1006E00053F824308C07240F00FA04F42343024CFF
:1006F0008D1044F8253030BD080001402DE9F0414F
:10070000024600250026002000230024002791F83F
:1007100003C00CF00F0591F803C00CF0100CBCF1F5
:10072000000F03D091F802C04CEA050591F800C013
:10073000BCF1000F31D0146800202BE04FF0010C09
:100740000CFA00F3B1F800C00CEA03069E4220D177
:1007500083004FF00F0C0CFA03F7BC4305FA03FCBF
:100760004CEA040491F803C0BCF1280F06D14FF005
:10077000010C0CFA00FCC2F814C00AE091F803C0A6
:10078000BCF1480F05D14FF0010C0CFA00FCC2F887
:1007900010C0401C0828D1D31460B1F800C0BCF1CF
:1007A000FF0F34DD546800202EE000F1080C4FF0FC
:1007B000010808FA0CF3B1F800C00CEA03069E42E7
:1007C00021D183004FF00F0C0CFA03F7BC4305FA5C
:1007D00003FC4CEA040491F803C0BCF1280F05D1D6
:1007E00000F1080C08FA0CF8C2F8148091F803C064
:1007F000BCF1480F07D100F1080C4FF0010808FACE
:100800000CF8C2F81080401C0828CED35460BDE814
:10081000F0810246002093680B400BB1012000E0FC
:1008200000207047416170470161704700BFFEE7DB
:10083000002004E00021034A1154411CC8B20728DB
:10084000F8DB70471800002008B50121102000F0E7
:10085000E9F84FF40050ADF8000003208DF80200D5
:1008600010208DF8030069460A48FFF747FF012171
:10087000082000F0D7F84FF4F070ADF80000032026
:100880008DF8020010208DF8030069460248FFF73A
:1008900035FF08BD00100140000C014000BFFEE71D
:1008A0007047000070B5002100230F22C47804B304
:1008B000154C246804F4E064C4F5E064210AC1F135
:1008C0000403CA40447804FA03F1847814402143B5
:1008D00009010E4C0678A155047804F01F05012487
:1008E000AC4005786D11AD0005F1E025C5F800417B
:1008F00009E0047804F01F050124AC40044D06789B
:10090000761145F8264070BD0CED00E000E400E0F3
:1009100080E100E002490143024A11607047000093
:100920000000FA050CED00E010B500F091FA01218D
:10093000880700F08DFC10BD10B520210848FFF796
:1009400071FF40210648FFF76FFF80210448FFF741
:1009500069FF4FF480710248FFF764FF10BD00008B
:10096000000C014010B520210848FFF75DFF402131
:100970000648FFF757FF80210448FFF753FF4FF465
:1009800080710248FFF74EFF10BD0000000C0140CF
:100990007047000010B520210848FFF743FF4021B1
:1009A0000648FFF73FFF80210448FFF73BFF4FF465
:1009B00080710248FFF738FF10BD0000000C0140B5
:1009C00010B520210848FFF72DFF40210648FFF70A
:1009D00029FF80210448FFF727FF4FF48071024868
:1009E000FFF720FF10BD0000000C01400146002071
:1009F000034A506820F440400843506070470000AC
:100A00000010024029B1064AD2690243044BDA6160
:100A100004E0034AD2698243014BDA617047000067
:100A20000010024029B1064A92690243044B9A61C0
:100A300004E0034A92698243014B9A6170470000C7
:100A40000010024010B500F039F84FF4803000F08B
:100A5000EFF800BF00F04AF90128FBD10220FFF7B0
:100A600021FE1020FFF710FE4FF4E0114FF480300C
:100A700000F022F9012000F019F900BF392000F040
:100A8000ADF80028FAD0002000F0C6F8002000F0F1
:100A900001F94FF4806000F0F1F84FF40040FFF7E7
:100AA000A5FF0220FFF7FEFD0020FFF7DFFD10206D
:100AB000FFF7EAFD022000F00DF910BD0F480068B5
:100AC00040F001000D490860084640680C490840A4
:100AD0000A494860084600680A4908400749086012
:100AE0000846006820F4802008600846406820F42A
:100AF000FE0048604FF41F008860704700100240FD
:100B00000000FFF8FFFFF6FE30B5002100220024B0
:100B100000232D4D6D6805F00C0121B1042905D08D
:100B2000082923D105E0294D056022E0274D056005
:100B30001FE0254D6D6805F47012234D6D6805F4B6
:100B40008034022505EB92421CB9214D55430560C6
:100B50000BE01D4D6D6805F400351DB11C4D55436E
:100B6000056002E0194D5543056002E0174D056030
:100B700000BF00BF144D6D6805F0F0010909154D67
:100B80006B5C0568DD4045600F4D6D6805F4E06104
:100B9000090A104D6B5C4568DD4085600A4D6D6843
:100BA00005F46051C90A0B4D6B5C4568DD40C560BA
:100BB000054D6D6805F44041890B074D6B5CC568B8
:100BC000B5FBF3F5056130BD0010024000127A005C
:100BD00000093D00230000203300002010B501462D
:100BE0000022002300204A11012A02D1094C236867
:100BF00006E0022A02D1074C236A01E0054C636A31
:100C000001F01F02012494401C400CB1012000E0BF
:100C1000002010BD0010024001460020034A506829
:100C200020F0F000084350607047000000100240C0
:100C30001149096821F480310F4A11601146096891
:100C400021F480211160B0F5803F03D0B0F5802FF2
:100C50000ED106E00849096841F48031064A116066
:100C600007E00549096841F4A021034A116000E04A
:100C700000BF00BF70470000001002400146002086
:100C8000034A506820F4E060084350607047000059
:100C90000010024001460020034A506820F46050D2
:100CA00040EAC100506070470010024001490866E8
:100CB000704700000000424202460020044B586882
:100CC00020F47C1042EA01031843014B586070473E
:100CD0000010024001460020034A506820F0030043
:100CE00008435060704700000010024038B50020F3
:100CF00000900024002500BF3120FFF76FFF05465C
:100D00000098401C00900098B0F5A06F01D0002D15
:100D1000F2D03120FFF762FF08B1012400E0002487
:100D2000204638BD704710B500F002F810BD000035
:100D30000CB50020019000903348006840F48030EA
:100D40003149086000BF3048006800F4003000906E
:100D50000198401C0190009818B90198B0F5A06F57
:100D6000F1D12948006800F4003010B10120009052
:100D700001E0002000900098012843D1234800683A
:100D800040F01000214908600846006820F0030088
:100D900008600846006840F0020008601A48406891
:100DA000194948600846406848600846406840F471
:100DB000806048600846406820F47C10486008461F
:100DC000406840F4E81048600846006840F08070D1
:100DD000086000BF0C48006800F000700028F9D0DF
:100DE0000948406820F00300074948600846406809
:100DF00040F00200486000BF0348406800F00C006B
:100E00000828F9D10CBD000000100240002002406B
:100E100010B500F01DF80121014800F019FA10BDCD
:100E2000002C014010B500F013F84FF400510248B7
:100E3000FFF7FAFC10BD0000001001400348C06835
:100E400080F400500149C860704700000010014064
:100E500010B50021064800F0FBF900214FF080405A
:100E600000F0F6F90021034800F0F2F910BD00008F
:100E7000002C01400008004010B5FFF7E9FF0121F8
:100E8000014800F0E5F910BD0008004010B500F081
:100E900067F8FFF7D7FD4820FFF760FAFFF7D4FCAB
:100EA00000F00DF8FFF706FA00F04AFA00F0A8FB90
:100EB00000F0A2F800F0E6F800F084F910BD08B5E3
:100EC0004FF4A060FFF726FD25208DF800000120DB
:100ED0008DF801008DF802008DF803006846FFF7D9
:100EE000E1FC26208DF8000001208DF801008DF82E
:100EF00002008DF803006846FFF7D4FC06208DF849
:100F0000000002208DF8010001208DF802008DF80C
:100F100003006846FFF7C6FC07208DF8000002209A
:100F20008DF801008DF8020001208DF8030068465D
:100F3000FFF7B8FC08BD042808D14FF0E02109698B
:100F400041F004014FF0E022116107E04FF0E02191
:100F5000096921F004014FF0E022116170477047E8
:100F600010B51348006840F00100114908600846B8
:100F70004068104908400E494860084600680E491C
:100F800008400B4908600846006820F4802008608B
:100F90000846406820F4FE0048604FF41F00886057
:100FA000FFF7C1FE4FF000600449086010BD00006B
:100FB000001002400000FFF8FFFFF6FE08ED00E021
:100FC0004FF47A70FFF7E8F9012080F3138800BF2F
:100FD00000BF0748006800F4E06006490843001DB0
:100FE00003490860BFF3408F00BF00BFFEE7000069
:100FF0000CED00E00000FA051FB50121C802FFF763
:1010000011FD0021164800F023F941F2BF20ADF890
:10101000040040F6B730ADF808000020ADF80A0033
:10102000ADF806008DF80C0001A90D4800F036F966
:1010300001210B4800F006F901221146084800F092
:1010400024F919208DF8000003208DF801008DF897
:10105000020001208DF803006846FFF723FC1FBD46
:10106000002C014010B50121054800F0FDF828B121
:101070000121034800F0E9F8FFF7E0FE10BD000091
:10108000002C01401FB501210846FFF7BBFC0021E1
:101090004FF0804000F0DCF841F63F70ADF80400FE
:1010A00042F22730ADF808000020ADF80A00ADF894
:1010B000060001A94FF0804000F0F0F8012211462F
:1010C000900700F0E2F81C208DF8000003208DF856
:1010D00001008DF8020001208DF803006846FFF73B
:1010E000E1FB1FBD10B50121880700F0BDF828B154
:1010F0000121880700F0A9F8FFF7A0FE10BD00004D
:101100001FB501210220FFF77DFC0021154800F0EA
:101110009FF840F65F10ADF8040040F6B730ADF828
:1011200008000020ADF80A00ADF8060001A90D483E
:1011300000F0B4F8012211460A4800F0A6F81D207C
:101140008DF8000003208DF801008DF802000120C9
:101150008DF803006846FFF7A5FB0021014800F069
:1011600077F81FBD0004004010B50121114800F0C0
:101170007BF8E8B101210F4800F067F80E480078CD
:1011800098B10E48006898B10C48006809280FD043
:101190000B480078FF2805D1FFF774F8FFF738FEF9
:1011A000FFF70EFFFFF7BCF802E0012002490870CC
:1011B00010BD0000000400401F00002010000020AF
:1011C000380000201FB501210420FFF71BFC00217F
:1011D000134800F03DF843F67F60ADF8040043F299
:1011E000BB40ADF808000020ADF80A00ADF80600DD
:1011F00001A90B4800F052F801221146084800F0FE
:1012000044F81E208DF8000003208DF801008DF8B1
:10121000020001208DF803006846FFF743FB1FBD65
:101220000008004010B50121054800F01DF828B164
:101230000121034800F009F8FFF700FE10BD00008F
:1012400000080040CA4302827047CA4302827047C6
:1012500021B1028842F00102028004E002884FF6C8
:10126000FE731A400280704730B50246002000230A
:101270000024158A05EA0103958905EA010413B1E2
:101280000CB1012000E0002030BD1AB183890B436E
:10129000838102E083898B43838170470022028827
:1012A0001D4B98420ED01D4B98420BD0B0F1804F91
:1012B00008D01B4B984205D01A4B984202D01A4BCB
:1012C000984204D14FF68F731A404B881A43174B3C
:1012D000984207D0164B984204D04FF6FF431A406D
:1012E000CB881A4302808B8883850B8803850A4B41
:1012F00098420BD0094B984208D00E4B984205D02B
:101300000D4B984202D00D4B984201D10B7A0386C7
:101310000123838270470000002C0140003401400B
:101320000004004000080040000C00400010004095
:1013300000140040004001400044014000480140CA
:1013400000B585B001210520FFF76CFB0121880362
:10135000FFF768FB4FF40070ADF8100003208DF824
:10136000120018208DF8130004A91948FFF7C6F9D8
:101370004FF48060ADF8100004208DF8130004A92C
:101380001348FFF7BBF94FF4614000900020ADF81F
:101390000400ADF80600ADF80800ADF80C000C2014
:1013A000ADF80A0069460B4800F01AFA012240F233
:1013B0002551084800F0EEF92021064800F0C8F950
:1013C0000121044800F0CDF9FFF79AFE05B000BDF9
:1013D000000801400038014010B558480078002846
:1013E00079D0702804D09A284BD0FF2874D198E087
:1013F00052484078012804D151490870FFF708FD90
:1014000031E04E484078022804D14D490870FFF77A
:1014100009FD28E049484078032804D1484908706C
:10142000FFF782FA1FE045484078042804D1444978
:101430000870FFF721FD16E040484078052804D1E8
:101440003F490870FFF7EEFC0DE03C484078062865
:1014500004D13B490870FFF7E5FC04E0002038495F
:101460000870FFF7F5FC37480078012806D10921FC
:10147000324800F055F9002032490870FEF750FF5D
:1014800059E02E484078022809D12C48807802285B
:1014900005D101202C490870FFF764FA30E0274895
:1014A0004078022809D125488078012805D10220FA
:1014B00025490870FFF740FA22E0204840780328C9
:1014C0000BD11E488078012807D103201E490870DF
:1014D000FFF776FA14E021E026E018484078032868
:1014E00009D116488078022805D1042016490870D1
:1014F000FFF750FA04E0002013490870FEF7C2FE1F
:1015000010480078012806D109210C4800F008F99C
:1015100000200C490870FEF703FF0CE0FEF700FF07
:1015200009E0FEF7FDFE06E00921044800F0F8F8A6
:10153000FEF7F6FE00BF00BF10BD0000380000201F
:1015400004000020210000200500002010B520210B
:101550001A4800F012F901282ED100242021174842
:1015600000F0F6F81648008800F0010030B90121BB
:101570001348FFF76DFE0020124908700F4800F075
:101580009BF9C4B210481149096844540F480068D7
:10159000401C0E4908600846006809280BD100204D
:1015A000086008490870FFF743F900210448FFF775
:1015B0004FFEFFF711FF00BF10BD000000380140D3
:1015C000000400401F000020380000201000002010
:1015D00070B505460E4600240CE000BF8021074888
:1015E00000F0CBF80028F9D0295D044800F069F933
:1015F000601C84B2B442F0DB70BD000000380140D2
:1016000000B585B001210520FFF70CFA012148043F
:10161000FFF7F8F90420ADF8000003208DF8020070
:1016200018208DF8030069461748FFF767F808206F
:10163000ADF8000004208DF8030069461248FFF75A
:101640005DF84FF4614001900020ADF80800ADF85E
:101650000A00ADF80C00ADF810000C20ADF80E003B
:1016600001A90A4800F0BCF8012240F225510748C0
:1016700000F090F82021054800F06AF801210348A5
:1016800000F06FF805B000BD0008014000440040C4
:1016900010B507210948FFF79BFF0848007870281C
:1016A00003D101200649087006E0044800789A2812
:1016B00002D101200249087010BD0000080000207E
:1016C0002100002010B52021114800F056F8012813
:1016D0001CD1002420210E4800F03AF80C4800F0FC
:1016E000EBF8C4B20B480C49096844540A48006836
:1016F000401C0949086008460068072805D10020F9
:10170000086006490870FFF7C3FF00BF10BD000066
:1017100000440040080000201400002020000020A9
:1017200070B505460E4600240CE000BF8021074836
:1017300000F023F80028F9D0295D044800F0C1F832
:10174000601C84B2B442F0DB70BD00000044004075
:1017500001F40072B2F5007F00D100BFCA430280DD
:10176000704721B1828942F40052828104E082896B
:101770004DF6FF731A408281704702460020B1F592
:10178000007F00D100BF13880B400BB1012000E0A7
:1017900000207047F0B503460024002600250020F5
:1017A00040F66A17B94200D100BF1846C1F342148F
:1017B00001F01F06012707FA06F5012C01D10C30B4
:1017C00004E0022C01D1103000E014301AB1076897
:1017D0002F43076002E00768AF430760F0BD0000D9
:1017E0002DE9F04786B005460E460024A24600BF0C
:1017F000A1460027B08900B100BF2F462C8A4CF6C5
:10180000FF700440F08804432C82AC894EF6F3103C
:101810000440B08831890843718908430443AC818E
:10182000AC8A4FF6FF400440B0890443AC8201A863
:10183000FFF76AF91F48874202D1DDF810A001E0E6
:10184000DDF80CA0A88900F4004040B10AEBCA0002
:1018500000EB0A1031684900B0FBF1F807E00AEB31
:10186000CA0000EB0A1031688900B0FBF1F864206F
:10187000B8FBF0F004012009642101FB1089A8895C
:1018800000F4004040B1322000EBC900B0FBF1F0A1
:1018900000F00700044308E0322000EB0910642147
:1018A000B0FBF1F000F00F0004432C8106B0BDE85E
:1018B000F08700000038014001468888C0F3080026
:1018C0007047C1F308028280704700BFFEE7000046
:1018D000FFF7DCFAFFF79CFA4FF47A70FEF75CFD35
:1018E0004FF47A70FEF758FD4FF47A70FEF754FD0E
:1018F000FEF79EFF9A201349087007211148FFF751
:1019000067FE1EE01048007802281AD00E480078C2
:10191000052816D00C480078062812D04FF47A70AB
:10192000FEF73AFD4FF47A70FEF736FD4FF47A7009
:10193000FEF732FD70200349087007210148FFF7C8
:1019400047FEDFE718000020040000206C190008A3
:1019500000000020380000006C010008A4190008F5
:101960003800002078060000880100080000000010
:101970000000000000000000000000000000000067
:101980000000000000000000000000000000000057
:101990000000000102030401020304060708090213
:0419A0000406080031
:0400000508000131BD
:00000001FF
