:020000040800F2
:10000000A8060020CD010008C90600086D060008FA
:10001000C50600087F020008331000080000000039
:100020000000000000000000000000008D0A000831
:10003000F102000800000000510700083F0C000812
:10004000E7010008E7010008E7010008E7010008F0
:10005000E7010008E70100086D030008A903000894
:10006000E7010008E7010008E7010008E7010008D0
:10007000E7010008E7010008E7010008E7010008C0
:10008000E7010008E7010008E7010008E7010008B0
:10009000E7010008E7010008E7010008E7010008A0
:1000A000A10C0008E7010008E7010008E7010008CB
:1000B000E7010008E7010008E7010008E701000880
:1000C000E7010008E7010008E7010008E701000870
:1000D000E70100083D0D00085D0E0008E70100087B
:1000E000E7010008E7010008E7010008E701000850
:1000F000E7010008E7010008E7010008E701000840
:10010000E7010008E7010008E7010008E70100082F
:10011000E7010008E7010008E7010008E70100081F
:10012000E7010008E7010008E7010008E70100080F
:1001300000F002F800F03AF80AA090E8000C8244BF
:100140008344AAF10107DA4501D100F02FF8AFF29C
:10015000090EBAE80F0013F0010F18BFFB1A43F0A5
:1001600001031847200F0000400F0000103A24BF81
:1001700078C878C1FAD8520724BF30C830C144BF0C
:1001800004680C607047000000230024002500264E
:10019000103A28BF78C1FBD8520728BF30C148BFEA
:1001A0000B6070471FB51FBD10B510BD00F031F8D2
:1001B0001146FFF7F7FF00F03FFF00F04FF803B4E0
:1001C000FFF7F2FF03BC00F053F800000948804736
:1001D00009480047FEE7FEE7FEE7FEE7FEE7FEE729
:1001E000FEE7FEE7FEE7FEE704480549054A064B41
:1001F00070470000410C000831010008A8000020F1
:10020000A8060020A8020020A8020020704770471E
:100210007047754600F028F8AE460500694653461B
:1002200020F00700854618B020B5FFF7DDFFBDE8D8
:1002300020404FF000064FF000074FF000084FF04D
:10024000000B21F00701AC46ACE8C009ACE8C009DE
:10025000ACE8C009ACE8C0098D4670470446AFF36E
:1002600000802046FFF7ABFF0048704748000020A1
:1002700001491820ABBEFEE726000200704700BF10
:10028000FEE700000EB50121092000F07FFA0320EF
:10029000ADF8080048208DF80B0002A9134800F0C3
:1002A0004DF90021012000F029F9012000900020E3
:1002B0008DF804000C208DF8050001208DF8060053
:1002C000684600F0A9F80121084600F017F902205D
:1002D000009000208DF804000C208DF8050001200E
:1002E0008DF80600684600F097F80EBD000C01403E
:1002F0007047000010B504466FF0040000F08BFC5E
:10030000E11704EB5171C1F3C701074A11701046A0
:10031000007800EB4001C1EBC0104FF6FF7101EA1D
:10032000C0000249088010BD00000020020000202B
:1003300001460D4A12884A434FF0E0235A610022D9
:100340009A6101221A6100BF4FF0E022106900F0AB
:1003500001021AB100F48032002AF5D000224FF0D9
:10036000E0231A619A6170470200002010B5012055
:1003700000F03EF880B10A20FFF7DAFF01210848BB
:1003800000F067F940B917200649087011208871FC
:100390000721044800F000FD012000F023F810BD03
:1003A000000C01401400002010B5022000F020F8DD
:1003B00080B10A20FFF7BCFF0221084800F049F98C
:1003C00040B922200649087033208871072104486B
:1003D00000F0E2FC022000F005F810BD000C014026
:1003E0001400002001490860704700001404014017
:1003F000014600200022074B1B6803EA0102054B5F
:1004000014331B680B4013B10AB1012000E0002037
:100410007047000000040140002123498279002A2E
:100420003AD00A46126803689A430B461A600A1DBE
:10043000126803689A430B1D1A60027911440A6816
:1004400003681A430A60184A0832126803689A431C
:10045000154B08331A601A1D126803689A43124B31
:100460000C331A604279102A0ED11A1F12680368E1
:100470001A430D4B08331A601A1D126803681A4399
:10048000094B0C331A600DE00749427911440A68A0
:1004900003681A430A6005E0027911440A68036898
:1004A0009A430A607047000000040140054909684A
:1004B00021F00801034A11601146096801431160E7
:1004C00070470000002002400549096821F0100132
:1004D000034A11601146096801431160704700002A
:1004E0000020024001460020034A106800F0380056
:1004F00008431060704700000020024030B5002221
:100500008B071C0F0F2303FA04F20B4B8C1053F8CC
:1005100024309343084C8D1044F8253023468C102A
:1005200053F824308C07240F00FA04F42343024CC0
:100530008D1044F8253030BD080001402DE9F04110
:10054000024600250026002000230024002791F801
:1005500003C00CF00F0591F803C00CF0100CBCF1B7
:10056000000F03D091F802C04CEA050591F800C0D5
:10057000BCF1000F31D0146800202BE04FF0010CCB
:100580000CFA00F3B1F800C00CEA03069E4220D139
:1005900083004FF00F0C0CFA03F7BC4305FA03FC81
:1005A0004CEA040491F803C0BCF1280F06D14FF0C7
:1005B000010C0CFA00FCC2F814C00AE091F803C068
:1005C000BCF1480F05D14FF0010C0CFA00FCC2F849
:1005D00010C0401C0828D1D31460B1F800C0BCF191
:1005E000FF0F34DD546800202EE000F1080C4FF0BE
:1005F000010808FA0CF3B1F800C00CEA03069E42A9
:1006000021D183004FF00F0C0CFA03F7BC4305FA1D
:1006100003FC4CEA040491F803C0BCF1280F05D197
:1006200000F1080C08FA0CF8C2F8148091F803C025
:10063000BCF1480F07D100F1080C4FF0010808FA8F
:100640000CF8C2F81080401C0828CED35460BDE8D6
:10065000F0810246002093680B400BB1012000E0BE
:1006600000207047416170470161704700BFFEE79D
:1006700008B50121102000F089F84FF40050ADF8C2
:10068000000003208DF8020010208DF80300694659
:100690000A48FFF753FF0121082000F077F84FF4D4
:1006A000F070ADF8000003208DF8020010208DF8E6
:1006B000030069460248FFF741FF08BD00100140F2
:1006C000000C014000BFFEE77047000070B500213C
:1006D00000230F22C47804B3154C246804F4E064AA
:1006E000C4F5E064210AC1F10403CA40447804FA65
:1006F00003F184781440214309010E4C0678A1557A
:10070000047804F01F050124AC4005786D11AD009C
:1007100005F1E025C5F8004109E0047804F01F0563
:100720000124AC40044D0678761145F8264070BD92
:100730000CED00E000E400E080E100E0024901434C
:10074000024A1160704700000000FA050CED00E05D
:100750007047000001460020034A506820F44040E2
:1007600008435060704700000010024029B1064A5B
:10077000D2690243044BDA6104E0034AD26982433E
:10078000014BDA61704700000010024029B1064AAF
:1007900092690243044B9A6104E0034A92698243DE
:1007A000014B9A61704700000010024010B500F044
:1007B00039F84FF4803000F0EFF800BF00F04AF94C
:1007C0000128FBD10220FFF78DFE1020FFF77CFEF1
:1007D0004FF4E0114FF4803000F022F9012000F0D6
:1007E00019F900BF392000F0ADF80028FAD0002038
:1007F00000F0C6F8002000F001F94FF4806000F02E
:10080000F1F84FF40040FFF7A5FF0220FFF76AFE62
:100810000020FFF74BFE1020FFF756FE022000F0ED
:100820000DF910BD0F48006840F001000D49086047
:10083000084640680C4908400A4948600846006874
:100840000A490840074908600846006820F48020EB
:1008500008600846406820F4FE0048604FF41F001E
:1008600088607047001002400000FFF8FFFFF6FEAE
:1008700030B500210022002400232D4D6D6805F0C5
:100880000C0121B1042905D0082923D105E0294D07
:10089000056022E0274D05601FE0254D6D6805F4D9
:1008A0007012234D6D6805F48034022505EB9242E9
:1008B0001CB9214D554305600BE01D4D6D6805F4D5
:1008C00000351DB11C4D5543056002E0194D5543DF
:1008D000056002E0174D056000BF00BF144D6D6854
:1008E00005F0F0010909154D6B5C0568DD404560B8
:1008F0000F4D6D6805F4E061090A104D6B5C4568A9
:10090000DD4085600A4D6D6805F46051C90A0B4DE4
:100910006B5C4568DD40C560054D6D6805F4404180
:10092000890B074D6B5CC568B5FBF3F5056130BD00
:100930000010024000127A0000093D001D00002056
:100940002D00002010B501460022002300204A118E
:10095000012A02D1094C236806E0022A02D1074C81
:10096000236A01E0054C636A01F01F0201249440F0
:100970001C400CB1012000E0002010BD001002401E
:1009800001460020034A506820F0F0000843506000
:1009900070470000001002401149096821F48031BD
:1009A0000F4A11601146096821F480211160B0F5E9
:1009B000803F03D0B0F5802F0ED106E008490968CA
:1009C00041F48031064A116007E00549096841F4A5
:1009D000A021034A116000E000BF00BF7047000083
:1009E0000010024001460020034A506820F4E060F5
:1009F000084350607047000000100240014600208C
:100A0000034A506820F4605040EAC10050607047CB
:100A10000010024001490866704700000000424291
:100A200002460020044B586820F47C1042EA01037F
:100A30001843014B586070470010024001460020E7
:100A4000034A506820F003000843506070470000DC
:100A50000010024038B5002000900024002500BF9F
:100A60003120FFF76FFF05460098401C009000986A
:100A7000B0F5A06F01D0002DF2D03120FFF762FF5A
:100A800008B1012400E00024204638BD704710B5AD
:100A900000F002F810BD00000CB50020019000909D
:100AA0003348006840F480303149086000BF304866
:100AB000006800F4003000900198401C01900098FC
:100AC00018B90198B0F5A06FF1D12948006800F479
:100AD000003010B10120009001E00020009000984B
:100AE000012843D12348006840F0100021490860E4
:100AF0000846006820F0030008600846006840F0DF
:100B0000020008601A484068194948600846406871
:100B100048600846406840F4806048600846406885
:100B200020F47C1048600846406840F4E8104860B3
:100B30000846006840F08070086000BF0C480068FC
:100B400000F000700028F9D00948406820F0030048
:100B5000074948600846406840F00200486000BF0E
:100B60000348406800F00C000828F9D10CBD0000D3
:100B7000001002400020024010B500F061F8FFF7BD
:100B800015FE4820FFF7B6FB00F007F8FFF77AFBE9
:100B900000F088F800F018F910BD08B54FF4A06017
:100BA000FFF7CCFD25208DF8000001208DF8010015
:100BB0008DF802008DF803006846FFF787FD2620B8
:100BC0008DF8000001208DF8010002208DF8020050
:100BD00001208DF803006846FFF778FD06208DF8A8
:100BE000000002208DF8010001208DF802008DF830
:100BF00003006846FFF76AFD07208DF80000022019
:100C00008DF801008DF8020001208DF80300684680
:100C1000FFF75CFD08BD042808D14FF0E021096909
:100C200041F004014FF0E022116107E04FF0E021B4
:100C3000096921F004014FF0E0221161704770470B
:100C400010B51348006840F00100114908600846DB
:100C50004068104908400E494860084600680E493F
:100C600008400B4908600846006820F480200860AE
:100C70000846406820F4FE0048604FF41F0088607A
:100C8000FFF705FF4FF000600449086010BD000049
:100C9000001002400000FFF8FFFFF6FE08ED00E044
:100CA0007047000000B585B001210520FFF76EFDFB
:100CB00001218803FFF76AFD4FF40070ADF81000C2
:100CC00003208DF8120018208DF8130004A918488D
:100CD000FFF734FC4FF48060ADF8100004208DF86D
:100CE000130004A91248FFF729FC4FF4614000905B
:100CF0000020ADF80400ADF80600ADF80800ADF82E
:100D00000C000C20ADF80A0069460A4800F01CF9F6
:100D1000012240F22551074800F0F0F82021054853
:100D200000F0CAF80121034800F0CFF805B000BD7B
:100D300000080140003801407047000010B5202134
:100D4000114800F0CEF801281CD1002420210E48C3
:100D500000F0B2F80C4800F063F9C4B20B480C493B
:100D6000096844540A480068401C0949086008465C
:100D70000068072805D10020086006490870FFF7C1
:100D8000DBFF00BF10BD0000003801403400002030
:100D90000C0000201B00002070B505460E46002404
:100DA0000CE000BF8021074800F09BF80028F9D034
:100DB000295D044800F039F9601C84B2B442F0DBCC
:100DC00070BD00000038014000B585B0012105204C
:100DD000FFF7DCFC01214804FFF7C8FC0420ADF854
:100DE000000003208DF8020018208DF803006946EA
:100DF0001748FFF7A3FB0820ADF8000004208DF88A
:100E0000030069461248FFF799FB4FF461400190D7
:100E10000020ADF80800ADF80A00ADF80C00ADF800
:100E200010000C20ADF80E0001A90A4800F08CF863
:100E3000012240F22551074800F060F820210548C2
:100E400000F03AF80121034800F03FF805B000BD7A
:100E500000080140004400407047000010B5202108
:100E6000114800F03EF801281CD1002420210E4832
:100E700000F022F80C4800F0D3F8C4B20B480C493B
:100E8000096844540A480068401C0949086008463B
:100E90000068072805D10020086006490870FFF7A0
:100EA000DBFF00BF10BD0000004400400400002034
:100EB000100000201C00002001F40072B2F5007F39
:100EC00000D100BFCA430280704721B1828942F439
:100ED0000052828104E082894DF6FF731A408281BC
:100EE000704702460020B1F5007F00D100BF138893
:100EF0000B400BB1012000E000207047F0B5034625
:100F0000002400260025002040F66A17B94200D1CF
:100F100000BF1846C1F3421401F01F06012707FA6B
:100F200006F5012C01D10C3004E0022C01D1103067
:100F300000E014301AB107682F43076002E0076829
:100F4000AF430760F0BD00002DE9F04786B00546CD
:100F50000E460024A24600BFA1460027B08900B17A
:100F600000BF2F462C8A4CF6FF700440F0880443E3
:100F70002C82AC894EF6F3100440B08831890843C6
:100F8000718908430443AC81AC8A4FF6FF400440AA
:100F9000B0890443AC8201A8FFF76AFC1F4887426E
:100FA00002D1DDF810A001E0DDF80CA0A88900F462
:100FB000004040B10AEBCA0000EB0A10316849005A
:100FC000B0FBF1F807E00AEBCA0000EB0A10316849
:100FD0008900B0FBF1F86420B8FBF0F004012009AF
:100FE000642101FB1089A88900F4004040B132203F
:100FF00000EBC900B0FBF1F000F00700044308E08B
:10100000322000EB09106421B0FBF1F000F00F007A
:1010100004432C8106B0BDE8F08700000038014091
:1010200001468888C0F308007047C1F30802828037
:10103000704700BFFEE70000FFF79EFDFFF718FBBB
:101040001BE04FF400510D48FFF70CFB4FF4F0711B
:101050000B48FFF707FB4FF47A70FFF769F94FF47D
:1010600000510648FFF700FB4FF4F0710448FFF70A
:10107000FBFA4FF47A70FFF75BF9E2E700100140EA
:10108000000C0140A4100008000000203400000003
:101090006C010008D810000834000020740600001D
:1010A00088010008000000000000000000000000AF
:1010B0000000000000000000000000000000000030
:1010C00000000000000102030401020304060708F7
:0810D0000902040608000000FB
:0400000508000131BD
:00000001FF
